{
  "abi": [
    {
      "inputs": [
        {
          "internalType": "uint256",
          "name": "item",
          "type": "uint256"
        }
      ],
      "name": "add",
      "outputs": [],
      "stateMutability": "nonpayable",
      "type": "function"
    },
    {
      "inputs": [],
      "name": "getItems",
      "outputs": [
        {
          "internalType": "uint256[]",
          "name": "",
          "type": "uint256[]"
        }
      ],
      "stateMutability": "view",
      "type": "function"
    },
    {
      "inputs": [
        {
          "internalType": "uint256",
          "name": "item",
          "type": "uint256"
        }
      ],
      "name": "has",
      "outputs": [
        {
          "internalType": "bool",
          "name": "",
          "type": "bool"
        }
      ],
      "stateMutability": "view",
      "type": "function"
    },
    {
      "inputs": [
        {
          "internalType": "uint256",
          "name": "item",
          "type": "uint256"
        }
      ],
      "name": "remove",
      "outputs": [],
      "stateMutability": "nonpayable",
      "type": "function"
    },
    {
      "inputs": [],
      "name": "size",
      "outputs": [
        {
          "internalType": "uint256",
          "name": "",
          "type": "uint256"
        }
      ],
      "stateMutability": "view",
      "type": "function"
    }
  ],
  "bytecode": {
    "object": "0x608060405234801561001057600080fd5b506103bf806100206000396000f3fe608060405234801561001057600080fd5b50600436106100575760003560e01c80631003e2d21461005c578063410d59cc146100715780634cc822151461008f578063949d225d146100a2578063cccf7a8e146100b3575b600080fd5b61006f61006a3660046102d9565b6100d6565b005b610079610128565b60405161008691906102f2565b60405180910390f35b61006f61009d3660046102d9565b610180565b600054604051908152602001610086565b6100c66100c13660046102d9565b610276565b6040519015158152602001610086565b6100df81610276565b156100e75750565b600080548282526001602081905260408320829055810182559080527f290decd9548b62a8d60345a988386fc84ba6bc95484008f6362f93160ef3e5630155565b6060600080548060200260200160405190810160405280929190818152602001828054801561017657602002820191906000526020600020905b815481526020019060010190808311610162575b5050505050905090565b61018981610276565b6101905750565b600080546101a090600190610336565b815481106101b0576101b061035d565b906000526020600020015460006001600084815260200190815260200160002054815481106101e1576101e161035d565b600091825260208083209091019290925582815260019182905260408120548154909291908190849081106102185761021861035d565b90600052602060002001548152602001908152602001600020819055506001600082815260200190815260200160002060009055600080548061025d5761025d610373565b6001900381819060005260206000200160009055905550565b60008054810361028857506000919050565b60008281526001602052604081205490036102c45781600080815481106102b1576102b161035d565b9060005260206000200154149050919050565b50600090815260016020526040902054151590565b6000602082840312156102eb57600080fd5b5035919050565b6020808252825182820181905260009190848201906040850190845b8181101561032a5783518352928401929184019160010161030e565b50909695505050505050565b8181038181111561035757634e487b7160e01b600052601160045260246000fd5b92915050565b634e487b7160e01b600052603260045260246000fd5b634e487b7160e01b600052603160045260246000fdfea26469706673582212205a41463ee94c5d76095b43f62ab3d50ef2ea707f4aa6908568ec10c04bf1ddde64736f6c63430008100033",
    "linkReferences": {}
  },
  "methodIdentifiers": {
    "add(uint256)": "1003e2d2",
    "getItems()": "410d59cc",
    "has(uint256)": "cccf7a8e",
    "remove(uint256)": "4cc82215",
    "size()": "949d225d"
  },
  "id": 12
}