{
  "abi": [
    {
      "inputs": [
        {
          "internalType": "uint256",
          "name": "setKey",
          "type": "uint256"
        },
        {
          "internalType": "uint256",
          "name": "item",
          "type": "uint256"
        }
      ],
      "name": "add",
      "outputs": [],
      "stateMutability": "nonpayable",
      "type": "function"
    },
    {
      "inputs": [
        {
          "internalType": "uint256",
          "name": "setKey",
          "type": "uint256"
        }
      ],
      "name": "getItems",
      "outputs": [
        {
          "internalType": "uint256[]",
          "name": "",
          "type": "uint256[]"
        }
      ],
      "stateMutability": "view",
      "type": "function"
    },
    {
      "inputs": [
        {
          "internalType": "uint256",
          "name": "setKey",
          "type": "uint256"
        },
        {
          "internalType": "uint256",
          "name": "item",
          "type": "uint256"
        }
      ],
      "name": "has",
      "outputs": [
        {
          "internalType": "bool",
          "name": "",
          "type": "bool"
        }
      ],
      "stateMutability": "view",
      "type": "function"
    },
    {
      "inputs": [
        {
          "internalType": "uint256",
          "name": "setKey",
          "type": "uint256"
        },
        {
          "internalType": "uint256",
          "name": "item",
          "type": "uint256"
        }
      ],
      "name": "remove",
      "outputs": [],
      "stateMutability": "nonpayable",
      "type": "function"
    },
    {
      "inputs": [
        {
          "internalType": "uint256",
          "name": "setKey",
          "type": "uint256"
        }
      ],
      "name": "size",
      "outputs": [
        {
          "internalType": "uint256",
          "name": "",
          "type": "uint256"
        }
      ],
      "stateMutability": "view",
      "type": "function"
    }
  ],
  "bytecode": {
    "object": "0x608060405234801561001057600080fd5b5061046b806100206000396000f3fe608060405234801561001057600080fd5b50600436106100575760003560e01c80636526db7a1461005c578063771602f714610071578063796c5e941461008457806385edea13146100ad578063a0265ff8146100db575b600080fd5b61006f61006a366004610369565b6100fe565b005b61006f61007f366004610369565b61022d565b61009761009236600461038b565b610276565b6040516100a491906103a4565b60405180910390f35b6100cd6100bb36600461038b565b60009081526020819052604090205490565b6040519081526020016100a4565b6100ee6100e9366004610369565b6102d6565b60405190151581526020016100a4565b61010882826102d6565b610110575050565b6000828152602081905260409020805461012c906001906103e8565b8154811061013c5761013c610409565b6000918252602080832090910154848352828252604080842060018452818520868652909352909220548154811061017657610176610409565b6000918252602080832090910192909255838152600182526040808220848352808452818320548684528385529183208584529381905283549193909291849081106101c4576101c4610409565b600091825260208083209091015483528281019390935260409182018120939093558483526001825280832084845282528083208390558483529082905290208054806102135761021361041f565b600190038181906000526020600020016000905590555050565b61023782826102d6565b15610240575050565b60009182526020828152604080842080546001808552838720868852855292862081905585845291820181558452922090910155565b600081815260208181526040918290208054835181840281018401909452808452606093928301828280156102ca57602002820191906000526020600020905b8154815260200190600101908083116102b6575b50505050509050919050565b60008281526020819052604081205481036102f357506000610363565b60008381526001602090815260408083208584529091528120549003610345576000838152602081905260408120805484929061033257610332610409565b9060005260206000200154149050610363565b50600082815260016020908152604080832084845290915290205415155b92915050565b6000806040838503121561037c57600080fd5b50508035926020909101359150565b60006020828403121561039d57600080fd5b5035919050565b6020808252825182820181905260009190848201906040850190845b818110156103dc578351835292840192918401916001016103c0565b50909695505050505050565b8181038181111561036357634e487b7160e01b600052601160045260246000fd5b634e487b7160e01b600052603260045260246000fd5b634e487b7160e01b600052603160045260246000fdfea2646970667358221220b0c5179b46cd38b54fb5e2f8e092dc34365bdcb0f601f6262cffd8fb46e9757764736f6c63430008100033",
    "linkReferences": {}
  },
  "methodIdentifiers": {
    "add(uint256,uint256)": "771602f7",
    "getItems(uint256)": "796c5e94",
    "has(uint256,uint256)": "a0265ff8",
    "remove(uint256,uint256)": "6526db7a",
    "size(uint256)": "85edea13"
  },
  "id": 11
}