{
  "abi": [
    {
      "anonymous": false,
      "inputs": [
        {
          "indexed": true,
          "internalType": "uint256",
          "name": "componentId",
          "type": "uint256"
        },
        {
          "indexed": true,
          "internalType": "address",
          "name": "component",
          "type": "address"
        },
        {
          "indexed": true,
          "internalType": "uint256",
          "name": "entity",
          "type": "uint256"
        }
      ],
      "name": "ComponentValueRemoved",
      "type": "event"
    },
    {
      "anonymous": false,
      "inputs": [
        {
          "indexed": true,
          "internalType": "uint256",
          "name": "componentId",
          "type": "uint256"
        },
        {
          "indexed": true,
          "internalType": "address",
          "name": "component",
          "type": "address"
        },
        {
          "indexed": true,
          "internalType": "uint256",
          "name": "entity",
          "type": "uint256"
        },
        {
          "indexed": false,
          "internalType": "bytes",
          "name": "data",
          "type": "bytes"
        }
      ],
      "name": "ComponentValueSet",
      "type": "event"
    },
    {
      "inputs": [],
      "name": "components",
      "outputs": [
        {
          "internalType": "contract IUint256Component",
          "name": "",
          "type": "address"
        }
      ],
      "stateMutability": "view",
      "type": "function"
    },
    {
      "inputs": [
        {
          "internalType": "uint256",
          "name": "id",
          "type": "uint256"
        }
      ],
      "name": "getComponent",
      "outputs": [
        {
          "internalType": "address",
          "name": "",
          "type": "address"
        }
      ],
      "stateMutability": "view",
      "type": "function"
    },
    {
      "inputs": [
        {
          "internalType": "address",
          "name": "componentAddr",
          "type": "address"
        }
      ],
      "name": "getComponentIdFromAddress",
      "outputs": [
        {
          "internalType": "uint256",
          "name": "",
          "type": "uint256"
        }
      ],
      "stateMutability": "view",
      "type": "function"
    },
    {
      "inputs": [],
      "name": "getNumEntities",
      "outputs": [
        {
          "internalType": "uint256",
          "name": "",
          "type": "uint256"
        }
      ],
      "stateMutability": "view",
      "type": "function"
    },
    {
      "inputs": [
        {
          "internalType": "uint256",
          "name": "systemId",
          "type": "uint256"
        }
      ],
      "name": "getSystemAddress",
      "outputs": [
        {
          "internalType": "address",
          "name": "",
          "type": "address"
        }
      ],
      "stateMutability": "view",
      "type": "function"
    },
    {
      "inputs": [],
      "name": "getUniqueEntityId",
      "outputs": [
        {
          "internalType": "uint256",
          "name": "",
          "type": "uint256"
        }
      ],
      "stateMutability": "view",
      "type": "function"
    },
    {
      "inputs": [
        {
          "internalType": "uint256",
          "name": "entity",
          "type": "uint256"
        }
      ],
      "name": "hasEntity",
      "outputs": [
        {
          "internalType": "bool",
          "name": "",
          "type": "bool"
        }
      ],
      "stateMutability": "view",
      "type": "function"
    },
    {
      "inputs": [],
      "name": "init",
      "outputs": [],
      "stateMutability": "nonpayable",
      "type": "function"
    },
    {
      "inputs": [
        {
          "components": [
            {
              "internalType": "enum QueryType",
              "name": "queryType",
              "type": "uint8"
            },
            {
              "internalType": "uint256",
              "name": "componentId",
              "type": "uint256"
            },
            {
              "internalType": "bytes",
              "name": "value",
              "type": "bytes"
            }
          ],
          "internalType": "struct WorldQueryFragment[]",
          "name": "worldQueryFragments",
          "type": "tuple[]"
        }
      ],
      "name": "query",
      "outputs": [
        {
          "internalType": "uint256[]",
          "name": "",
          "type": "uint256[]"
        }
      ],
      "stateMutability": "view",
      "type": "function"
    },
    {
      "inputs": [],
      "name": "register",
      "outputs": [
        {
          "internalType": "contract RegisterSystem",
          "name": "",
          "type": "address"
        }
      ],
      "stateMutability": "view",
      "type": "function"
    },
    {
      "inputs": [
        {
          "internalType": "address",
          "name": "componentAddr",
          "type": "address"
        },
        {
          "internalType": "uint256",
          "name": "id",
          "type": "uint256"
        }
      ],
      "name": "registerComponent",
      "outputs": [],
      "stateMutability": "nonpayable",
      "type": "function"
    },
    {
      "inputs": [
        {
          "internalType": "address",
          "name": "component",
          "type": "address"
        },
        {
          "internalType": "uint256",
          "name": "entity",
          "type": "uint256"
        }
      ],
      "name": "registerComponentValueRemoved",
      "outputs": [],
      "stateMutability": "nonpayable",
      "type": "function"
    },
    {
      "inputs": [
        {
          "internalType": "address",
          "name": "component",
          "type": "address"
        },
        {
          "internalType": "uint256",
          "name": "entity",
          "type": "uint256"
        },
        {
          "internalType": "bytes",
          "name": "data",
          "type": "bytes"
        }
      ],
      "name": "registerComponentValueSet",
      "outputs": [],
      "stateMutability": "nonpayable",
      "type": "function"
    },
    {
      "inputs": [
        {
          "internalType": "address",
          "name": "systemAddr",
          "type": "address"
        },
        {
          "internalType": "uint256",
          "name": "id",
          "type": "uint256"
        }
      ],
      "name": "registerSystem",
      "outputs": [],
      "stateMutability": "nonpayable",
      "type": "function"
    },
    {
      "inputs": [],
      "name": "systems",
      "outputs": [
        {
          "internalType": "contract IUint256Component",
          "name": "",
          "type": "address"
        }
      ],
      "stateMutability": "view",
      "type": "function"
    }
  ],
  "bytecode": {
    "object": "0x6080604052604051620000129062000295565b604051809103906000f0801580156200002f573d6000803e3d6000fd5b50600080546001600160a01b0319166001600160a01b03929092169190911790553480156200005d57600080fd5b5060007f4350dba81aa91e31664a09d24a668f006169a11b3d962b7557aed362d3252aec60001c6040516200009290620002a3565b6001600160a01b0390921682526020820152604001604051809103906000f080158015620000c4573d6000803e3d6000fd5b50600180546001600160a01b0319166001600160a01b03929092169190911790556040516000907f017c816a964927a00e050edd780dcf113ca2756dfa9e9fda94a05c140d9317b0906200011890620002a3565b6001600160a01b0390921682526020820152604001604051809103906000f0801580156200014a573d6000803e3d6000fd5b50600280546001600160a01b0319166001600160a01b03928316179055600154604051309291909116906200017f90620002b1565b6001600160a01b03928316815291166020820152604001604051809103906000f080158015620001b3573d6000803e3d6000fd5b50600380546001600160a01b0319166001600160a01b039283169081179091556002546040516309fded4760e31b8152600481019290925290911690634fef6a3890602401600060405180830381600087803b1580156200021357600080fd5b505af115801562000228573d6000803e3d6000fd5b50506001546003546040516309fded4760e31b81526001600160a01b03918216600482015291169250634fef6a389150602401600060405180830381600087803b1580156200027657600080fd5b505af11580156200028b573d6000803e3d6000fd5b50505050620002bf565b6103df806200250383390190565b611f0280620028e283390190565b610bee80620047e483390190565b61223480620002cf6000396000f3fe608060405234801561001057600080fd5b50600436106100f55760003560e01c8063af104e4011610097578063e1c7392a11610066578063e1c7392a146101e7578063e3d12875146101ef578063f303477014610212578063fb3ec48b1461022557600080fd5b8063af104e40146101a8578063ba62fbe4146101bb578063d7ecf62b146101cc578063d803064a146101d457600080fd5b80634f27da18116100d35780634f27da181461014c578063614bfa6e1461015f578063687485a6146101755780639f54f5451461019557600080fd5b80630d59332e146100fa5780631aa3a008146101245780631ee444b714610137575b600080fd5b6002546001600160a01b03165b6040516001600160a01b0390911681526020015b60405180910390f35b600354610107906001600160a01b031681565b61014a610145366004611cc0565b610238565b005b61010761015a366004611cea565b6102dc565b6101676102fb565b60405190815260200161011b565b610188610183366004611d03565b610359565b60405161011b9190611d78565b6101676101a3366004611dbc565b61051e565b61014a6101b6366004611dd7565b610537565b6001546001600160a01b0316610107565b6101676106bf565b61014a6101e2366004611cc0565b61073c565b61014a61084f565b6102026101fd366004611cea565b6109cb565b604051901515815260200161011b565b61014a610220366004611cc0565b610a39565b610107610233366004611cea565b610a66565b6003546040516001600160a01b03909116906309c5eabe9061026590339060019087908790602001611e74565b6040516020818303038152906040526040518263ffffffff1660e01b81526004016102909190611ee6565b6000604051808303816000875af11580156102af573d6000803e3d6000fd5b505050506040513d6000823e601f3d908101601f191682016040526102d79190810190611f60565b505050565b6001546000906102f5906001600160a01b031683610a7b565b92915050565b6000806103066106bf565b905060005b816103158161200a565b9250508160405160200161032b91815260200190565b6040516020818303038152906040528051906020012060001c905061034f816109cb565b61030b5792915050565b606060008267ffffffffffffffff81111561037657610376611f19565b6040519080825280602002602001820160405280156103c357816020015b604080516060808201835260008083526020830152918101919091528152602001906001900390816103945790505b50905060005b8381101561050c5760405180606001604052808686848181106103ee576103ee612023565b90506020028101906104009190612039565b61040e906020810190612059565b600581111561041f5761041f611e5e565b8152600154602090910190610464906001600160a01b031688888681811061044957610449612023565b905060200281019061045b9190612039565b60200135610b55565b6001600160a01b0316815260200186868481811061048457610484612023565b90506020028101906104969190612039565b6104a490604081019061207a565b8080601f016020809104026020016040519081016040528093929190818152602001838380828437600092019190915250505091525082518390839081106104ee576104ee612023565b602002602001018190525080806105049061200a565b9150506103c9565b5061051681610b68565b949350505050565b6001546000906102f5906001600160a01b031683610fa8565b60015484906001600160a01b031663cccf7a8e61055a836001600160a01b031690565b6040518263ffffffff1660e01b815260040161057891815260200190565b602060405180830381865afa158015610595573d6000803e3d6000fd5b505050506040513d601f19601f820116820180604052508101906105b991906120c8565b6106055760405162461bcd60e51b815260206004820152601860248201527718dbdb5c1bdb995b9d081b9bdd081c9959da5cdd195c995960421b60448201526064015b60405180910390fd5b600054604051630801f16960e11b8152600481018690526001600160a01b0390911690631003e2d290602401600060405180830381600087803b15801561064b57600080fd5b505af115801561065f573d6000803e3d6000fd5b50506001548692506001600160a01b03808916925061067f911688610fa8565b7f6ac31c38682e0128240cf68316d7ae751020d8f74c614e2a30278afcec8a607386866040516106b09291906120ea565b60405180910390a45050505050565b60008060009054906101000a90046001600160a01b03166001600160a01b031663949d225d6040518163ffffffff1660e01b8152600401602060405180830381865afa158015610713573d6000803e3d6000fd5b505050506040513d601f19601f820116820180604052508101906107379190612119565b905090565b60015482906001600160a01b031663cccf7a8e61075f836001600160a01b031690565b6040518263ffffffff1660e01b815260040161077d91815260200190565b602060405180830381865afa15801561079a573d6000803e3d6000fd5b505050506040513d601f19601f820116820180604052508101906107be91906120c8565b6108055760405162461bcd60e51b815260206004820152601860248201527718dbdb5c1bdb995b9d081b9bdd081c9959da5cdd195c995960421b60448201526064016105fc565b60015482906001600160a01b0380861691610821911686610fa8565b6040517f6dd56823030ae6d8ae09cbfb8972c4e9494e67b209c4ab6300c21d73e269b35090600090a4505050565b60015460405163274b1dad60e21b81523060048201526001600160a01b0390911690639d2c76b490602401600060405180830381600087803b15801561089457600080fd5b505af11580156108a8573d6000803e3d6000fd5b505060025460405163274b1dad60e21b81523060048201526001600160a01b039091169250639d2c76b49150602401600060405180830381600087803b1580156108f157600080fd5b505af1158015610905573d6000803e3d6000fd5b50506003546040516001600160a01b0390911692506309c5eabe915061095690339060019085907f554d0b3fe5f19a44775dc4000490ad0bafbc48129e8e396be983226890aece9990602001611e74565b6040516020818303038152906040526040518263ffffffff1660e01b81526004016109819190611ee6565b6000604051808303816000875af11580156109a0573d6000803e3d6000fd5b505050506040513d6000823e601f3d908101601f191682016040526109c89190810190611f60565b50565b60008054604051636667bd4760e11b8152600481018490526001600160a01b039091169063cccf7a8e90602401602060405180830381865afa158015610a15573d6000803e3d6000fd5b505050506040513d601f19601f820116820180604052508101906102f591906120c8565b6003546040516001600160a01b03909116906309c5eabe9061026590339060009087908790602001611e74565b6002546000906102f5906001600160a01b0316835b604051637defd0f560e11b81526004810182905260009081906001600160a01b0385169063fbdfa1ea90602401600060405180830381865afa158015610ac5573d6000803e3d6000fd5b505050506040513d6000823e601f3d908101601f19168201604052610aed9190810190612132565b90508051600003610b345760405162461bcd60e51b81526020600482015260116024820152701a59081b9bdd081c9959da5cdd195c9959607a1b60448201526064016105fc565b61051681600081518110610b4a57610b4a612023565b602002602001015190565b6000610b618383610a7b565b9392505050565b6060610b72611c31565b600160b51b8152600060208201819052600160808301525b8351811015610f95576000848281518110610ba757610ba7612023565b60200260200101519050610bba816110eb565b15610c0857600481516005811115610bd457610bd4611e5e565b03610be157604083018190525b600581516005811115610bf657610bf6611e5e565b03610c0357606083018190525b610f82565b826080015115610eae57610c1b81611126565b610c675760405162461bcd60e51b815260206004820152601960248201527f4e454741544956455f494e495449414c5f465241474d454e540000000000000060448201526064016105fc565b6000608084018190528082516005811115610c8457610c84611e5e565b14610d075781602001516001600160a01b031663b361be4683604001516040518263ffffffff1660e01b8152600401610cbd9190611ee6565b600060405180830381865afa158015610cda573d6000803e3d6000fd5b505050506040513d6000823e601f3d908101601f19168201604052610d029190810190612132565b610d71565b81602001516001600160a01b03166331b933b96040518163ffffffff1660e01b8152600401600060405180830381865afa158015610d49573d6000803e3d6000fd5b505050506040513d6000823e601f3d908101601f19168201604052610d719190810190612132565b9050610d7c8161114a565b84528051602080860191909152606085015101516001600160a01b031615801590610dc257506000846060015160400151806020019051810190610dc09190612119565b115b15610ea85760005b8151811015610ea6576000610e1c838381518110610dea57610dea612023565b6020026020010151876060015160200151886060015160400151806020019051810190610e179190612119565b61119f565b905060005b8151811015610e9157610e6a610e626040518060400160405280858581518110610e4d57610e4d612023565b60200260200101518152602001600081525090565b885190611398565b875260208701805190610e7c8261200a565b90525080610e898161200a565b915050610e21565b50508080610e9e9061200a565b915050610dca565b505b50610f82565b8251600160b51b9060009060019060601c69ffffffffffffffffffff165b8115610f77576000610ef08260408051808201909152600080825260208201525090565b80519091506000610f0182896113ea565b9050610f0f8a8984846116b0565b90508015610f4d57610f3d610f366040518060400160405280858152602001600081525090565b8890611398565b965085610f498161200a565b9650505b610f5a8a89848a8a611735565b8b5160b01c860151919850965080151595509350610ecc92505050565b505090845260208401525b5080610f8d8161200a565b915050610b8a565b50610b61816000015182602001516118ac565b6000826001600160a01b031663cccf7a8e610fc9846001600160a01b031690565b6040518263ffffffff1660e01b8152600401610fe791815260200190565b602060405180830381865afa158015611004573d6000803e3d6000fd5b505050506040513d601f19601f8201168201806040525081019061102891906120c8565b61106d5760405162461bcd60e51b81526020600482015260166024820152751859191c995cdcc81b9bdd081c9959da5cdd195c995960521b60448201526064016105fc565b826001600160a01b0316630ff4c91661108c846001600160a01b031690565b6040518263ffffffff1660e01b81526004016110aa91815260200190565b602060405180830381865afa1580156110c7573d6000803e3d6000fd5b505050506040513d601f19601f82011682018060405250810190610b619190612119565b600060048251600581111561110257611102611e5e565b14806102f5575060055b8251600581111561111f5761111f611e5e565b1492915050565b6000808251600581111561113c5761113c611e5e565b14806102f55750600261110c565b600160b51b60005b82518110156111995761118561117e6040518060400160405280868581518110610e4d57610e4d612023565b8390611398565b9150806111918161200a565b915050611152565b50919050565b6060816000036111be5750604080516000815260208101909152610b61565b6000836001600160a01b031663b361be46866040516020016111e291815260200190565b6040516020818303038152906040526040518263ffffffff1660e01b815260040161120d9190611ee6565b600060405180830381865afa15801561122a573d6000803e3d6000fd5b505050506040513d6000823e601f3d908101601f191682016040526112529190810190612132565b905082600103611263579050610b61565b600160b51b6000805b83518110156113115760006112a285838151811061128c5761128c612023565b60200260200101518960018a610e1791906121d8565b905060005b81518110156112fc576112da6112d36040518060400160405280858581518110610e4d57610e4d612023565b8690611398565b9450836112e68161200a565b94505080806112f49061200a565b9150506112a7565b505080806113099061200a565b91505061126c565b50600061132a8385518461132591906121eb565b6118ac565b905060005b845181101561138c5784818151811061134a5761134a612023565b602002602001015182828561135f91906121eb565b8151811061136f5761136f612023565b6020908102919091010152806113848161200a565b91505061132f565b50979650505050505050565b6000808360501b60b01c11600181146113bd578260101b8360601b85171791506113e3565b828460b01c8560a01b60b01c01528260101b6bffffffffffffffffffffffff1985161791505b5092915050565b6000808251600581111561140057611400611e5e565b0361147b576020820151604051636667bd4760e11b8152600481018590526001600160a01b039091169063cccf7a8e90602401602060405180830381865afa158015611450573d6000803e3d6000fd5b505050506040513d601f19601f8201168201806040525081019061147491906120c8565b90506102f5565b60028251600581111561149057611490611e5e565b0361152357602082015160405163b8bc073d60e01b8152600481018590526001600160a01b039091169063b8bc073d90602401600060405180830381865afa1580156114e0573d6000803e3d6000fd5b505050506040513d6000823e601f3d908101601f191682016040526115089190810190611f60565b805190602001208260400151805190602001201490506102f5565b60018251600581111561153857611538611e5e565b036115b4576020820151604051636667bd4760e11b8152600481018590526001600160a01b039091169063cccf7a8e90602401602060405180830381865afa158015611588573d6000803e3d6000fd5b505050506040513d601f19601f820116820180604052508101906115ac91906120c8565b1590506102f5565b6003825160058111156115c9576115c9611e5e565b0361165d57602082015160405163b8bc073d60e01b8152600481018590526001600160a01b039091169063b8bc073d90602401600060405180830381865afa158015611619573d6000803e3d6000fd5b505050506040513d6000823e601f3d908101601f191682016040526116419190810190611f60565b80519060200120826040015180519060200120141590506102f5565b61166682611984565b6116a75760405162461bcd60e51b81526020600482015260126024820152711393d7d1539512551657d1949051d351539560721b60448201526064016105fc565b50600092915050565b6040840151602001516000906001600160a01b0316158015906116ee575060008560400151604001518060200190518101906116ec9190612119565b115b801561170157506116ff82856119e3565b155b1561172d5760008061171885878960400151611a0e565b91509150801561172a57509050610516565b50505b509392505050565b60608501516020015160009081906001600160a01b031615801590611775575060008760600151604001518060200190518101906117739190612119565b115b156118a05760006117a5868960600151602001518a6060015160400151806020019051810190610e179190612119565b905060005b815181101561189d5760008282815181106117c7576117c7612023565b6020026020010151905060006117dd828b6113ea565b9050801580156117fd575060408b0151602001516001600160a01b031615155b8015611824575060008b60400151604001518060200190518101906118229190612119565b115b1561184c5760008061183b848d8f60400151611a0e565b915091508015611849578192505b50505b80156118885761187861187160405180604001604052808c8152602001600081525090565b8990611398565b9750866118848161200a565b9750505b505080806118959061200a565b9150506117aa565b50505b50919590945092505050565b60608167ffffffffffffffff8111156118c7576118c7611f19565b6040519080825280602002602001820160405280156118f0578160200160208202803683370190505b50905081156102f557600169ffffffffffffffffffff606085901c1660005b821561197b5760006119338360408051808201909152600080825260208201525090565b9050806000015185838151811061194c5761194c612023565b6020908102919091010152816119618161200a565b60b089901c9490940151801515955093925061190f915050565b50505092915050565b6000808251600581111561199a5761199a611e5e565b14806119b857506002825160058111156119b6576119b6611e5e565b145b806119d6575060015b825160058111156119d4576119d4611e5e565b145b806102f55750600361110c565b60008280156119f657506119f682611126565b80610b61575082158015610b615750610b6182611c28565b600080611a1a84611984565b611a5b5760405162461bcd60e51b81526020600482015260126024820152711393d7d1539512551657d1949051d351539560721b60448201526064016105fc565b600483516005811115611a7057611a70611e5e565b14611ab65760405162461bcd60e51b81526020600482015260166024820152751393d7d41493d61657d491505117d1949051d351539560521b60448201526064016105fc565b8460005b8460400151806020019051810190611ad29190612119565b811015611c19576020850151604051636667bd4760e11b8152600481018490526001600160a01b039091169063cccf7a8e90602401602060405180830381865afa158015611b24573d6000803e3d6000fd5b505050506040513d601f19601f82011682018060405250810190611b4891906120c8565b611b58575060009150611c209050565b602085015160405163b8bc073d60e01b8152600481018490526001600160a01b039091169063b8bc073d90602401600060405180830381865afa158015611ba3573d6000803e3d6000fd5b505050506040513d6000823e601f3d908101601f19168201604052611bcb9190810190611f60565b806020019051810190611bde9190612119565b9150611bea82876113ea565b9350611bf684876119e3565b15611c07575060019150611c209050565b80611c118161200a565b915050611aba565b5060019150505b935093915050565b600060016119c1565b6040805160a08101825260008082526020820152908101611c6d6040805160608101909152806000815260006020820152606060409091015290565b8152602001611c976040805160608101909152806000815260006020820152606060409091015290565b8152600060209091015290565b80356001600160a01b0381168114611cbb57600080fd5b919050565b60008060408385031215611cd357600080fd5b611cdc83611ca4565b946020939093013593505050565b600060208284031215611cfc57600080fd5b5035919050565b60008060208385031215611d1657600080fd5b823567ffffffffffffffff80821115611d2e57600080fd5b818501915085601f830112611d4257600080fd5b813581811115611d5157600080fd5b8660208260051b8501011115611d6657600080fd5b60209290920196919550909350505050565b6020808252825182820181905260009190848201906040850190845b81811015611db057835183529284019291840191600101611d94565b50909695505050505050565b600060208284031215611dce57600080fd5b610b6182611ca4565b60008060008060608587031215611ded57600080fd5b611df685611ca4565b935060208501359250604085013567ffffffffffffffff80821115611e1a57600080fd5b818701915087601f830112611e2e57600080fd5b813581811115611e3d57600080fd5b886020828501011115611e4f57600080fd5b95989497505060200194505050565b634e487b7160e01b600052602160045260246000fd5b6001600160a01b038581168252608082019060028610611ea457634e487b7160e01b600052602160045260246000fd5b85602084015280851660408401525082606083015295945050505050565b60005b83811015611edd578181015183820152602001611ec5565b50506000910152565b6020815260008251806020840152611f05816040850160208701611ec2565b601f01601f19169190910160400192915050565b634e487b7160e01b600052604160045260246000fd5b604051601f8201601f1916810167ffffffffffffffff81118282101715611f5857611f58611f19565b604052919050565b600060208284031215611f7257600080fd5b815167ffffffffffffffff80821115611f8a57600080fd5b818401915084601f830112611f9e57600080fd5b815181811115611fb057611fb0611f19565b611fc3601f8201601f1916602001611f2f565b9150808252856020828501011115611fda57600080fd5b611feb816020840160208601611ec2565b50949350505050565b634e487b7160e01b600052601160045260246000fd5b60006001820161201c5761201c611ff4565b5060010190565b634e487b7160e01b600052603260045260246000fd5b60008235605e1983360301811261204f57600080fd5b9190910192915050565b60006020828403121561206b57600080fd5b813560068110610b6157600080fd5b6000808335601e1984360301811261209157600080fd5b83018035915067ffffffffffffffff8211156120ac57600080fd5b6020019150368190038213156120c157600080fd5b9250929050565b6000602082840312156120da57600080fd5b81518015158114610b6157600080fd5b60208152816020820152818360408301376000818301604090810191909152601f909201601f19160101919050565b60006020828403121561212b57600080fd5b5051919050565b6000602080838503121561214557600080fd5b825167ffffffffffffffff8082111561215d57600080fd5b818501915085601f83011261217157600080fd5b81518181111561218357612183611f19565b8060051b9150612194848301611f2f565b81815291830184019184810190888411156121ae57600080fd5b938501935b838510156121cc578451825293850193908501906121b3565b98975050505050505050565b818103818111156102f5576102f5611ff4565b808201808211156102f5576102f5611ff456fea2646970667358221220436b7f893056c8e87bd704ffd5d9fe61c323cadc71242f8a255ccebbf3359d4864736f6c63430008100033608060405234801561001057600080fd5b506103bf806100206000396000f3fe608060405234801561001057600080fd5b50600436106100575760003560e01c80631003e2d21461005c578063410d59cc146100715780634cc822151461008f578063949d225d146100a2578063cccf7a8e146100b3575b600080fd5b61006f61006a3660046102d9565b6100d6565b005b610079610128565b60405161008691906102f2565b60405180910390f35b61006f61009d3660046102d9565b610180565b600054604051908152602001610086565b6100c66100c13660046102d9565b610276565b6040519015158152602001610086565b6100df81610276565b156100e75750565b600080548282526001602081905260408320829055810182559080527f290decd9548b62a8d60345a988386fc84ba6bc95484008f6362f93160ef3e5630155565b6060600080548060200260200160405190810160405280929190818152602001828054801561017657602002820191906000526020600020905b815481526020019060010190808311610162575b5050505050905090565b61018981610276565b6101905750565b600080546101a090600190610336565b815481106101b0576101b061035d565b906000526020600020015460006001600084815260200190815260200160002054815481106101e1576101e161035d565b600091825260208083209091019290925582815260019182905260408120548154909291908190849081106102185761021861035d565b90600052602060002001548152602001908152602001600020819055506001600082815260200190815260200160002060009055600080548061025d5761025d610373565b6001900381819060005260206000200160009055905550565b60008054810361028857506000919050565b60008281526001602052604081205490036102c45781600080815481106102b1576102b161035d565b9060005260206000200154149050919050565b50600090815260016020526040902054151590565b6000602082840312156102eb57600080fd5b5035919050565b6020808252825182820181905260009190848201906040850190845b8181101561032a5783518352928401929184019160010161030e565b50909695505050505050565b8181038181111561035757634e487b7160e01b600052601160045260246000fd5b92915050565b634e487b7160e01b600052603260045260246000fd5b634e487b7160e01b600052603160045260246000fdfea26469706673582212205a41463ee94c5d76095b43f62ab3d50ef2ea707f4aa6908568ec10c04bf1ddde64736f6c6343000810003360806040523480156200001157600080fd5b5060405162001f0238038062001f028339810160408190526200003491620001f8565b81816040516200004490620001dc565b604051809103906000f08015801562000061573d6000803e3d6000fd5b50600380546001600160a01b0319166001600160a01b03929092169190911790556040516200009090620001ea565b604051809103906000f080158015620000ad573d6000803e3d6000fd5b50600580546001600160a01b03199081166001600160a01b03938416179091556001805433921682178155600091825260026020526040909120805460ff1916909117905560078290558216156200010a576200010a8262000114565b5050505062000234565b6001546001600160a01b03163314620001605760405162461bcd60e51b815260206004820152600a60248201526927a7262cafa7aba722a960b11b604482015260640160405180910390fd5b600080546001600160a01b0319166001600160a01b038316908117909155600754604051630f30347760e41b8152306004820152602481019190915263f303477090604401600060405180830381600087803b158015620001c057600080fd5b505af1158015620001d5573d6000803e3d6000fd5b5050505050565b6103df806200169883390190565b61048b8062001a7783390190565b600080604083850312156200020c57600080fd5b82516001600160a01b03811681146200022457600080fd5b6020939093015192949293505050565b61145480620002446000396000f3fe608060405234801561001057600080fd5b50600436106101165760003560e01c80638b282947116100a2578063b361be4611610071578063b361be4614610258578063b8bc073d1461026b578063cccf7a8e1461028b578063f2fde38b1461029e578063fbdfa1ea146102b157600080fd5b80638b282947146102185780638da5cb5b1461022b5780639d2c76b41461023c578063af640d0f1461024f57600080fd5b80634cc82215116100e95780634cc82215146101965780634fef6a38146101a95780636b122fe0146101bc57806375c0669c146101d2578063861eb905146101e557600080fd5b80630ff4c9161461011b5780631ab06ee51461014157806330b67baa1461015657806331b933b914610181575b600080fd5b61012e610129366004610da9565b6102c4565b6040519081526020015b60405180910390f35b61015461014f366004610dc2565b6102ea565b005b600054610169906001600160a01b031681565b6040516001600160a01b039091168152602001610138565b610189610319565b6040516101389190610de4565b6101546101a4366004610da9565b610390565b6101546101b7366004610e28565b610665565b6101c46106b3565b604051610138929190610ead565b6101546101e0366004610e28565b610787565b6102086101f3366004610e28565b60026020526000908152604090205460ff1681565b6040519015158152602001610138565b61015461022636600461101c565b610808565b6001546001600160a01b0316610169565b61015461024a366004610e28565b610ab6565b61012e60075481565b610189610266366004611063565b610b2a565b61027e610279366004610da9565b610baa565b60405161013891906110a0565b610208610299366004610da9565b610c4c565b6101546102ac366004610e28565b610cba565b6101896102bf366004610da9565b610d2f565b6000806102d083610baa565b8060200190518101906102e391906110b3565b9392505050565b610315828260405160200161030191815260200190565b604051602081830303815290604052610808565b5050565b60035460408051631043567360e21b815290516060926001600160a01b03169163410d59cc9160048083019260009291908290030181865afa158015610363573d6000803e3d6000fd5b505050506040513d6000823e601f3d908101601f1916820160405261038b91908101906110cc565b905090565b3360009081526002602052604090205460ff166103c85760405162461bcd60e51b81526004016103bf90611172565b60405180910390fd5b6005546000828152600460205260409081902090516001600160a01b03909216916385edea13916103f8916111d1565b60405190819003812060e083901b6001600160e01b03191682526004820152602401602060405180830381865afa158015610437573d6000803e3d6000fd5b505050506040513d601f19601f8201168201806040525081019061045b91906110b3565b15610662576005546000828152600460205260409081902090516001600160a01b0390921691636526db7a91610490916111d1565b60405190819003812060e083901b6001600160e01b0319168252600482015260248101849052604401600060405180830381600087803b1580156104d357600080fd5b505af11580156104e7573d6000803e3d6000fd5b5050600354604051634cc8221560e01b8152600481018590526001600160a01b039091169250634cc822159150602401600060405180830381600087803b15801561053157600080fd5b505af1158015610545573d6000803e3d6000fd5b5050506000828152600460205260408120610561925090610d5b565b60005b6006548110156105fb576006818154811061058157610581611247565b600091825260209091200154604051634cc8221560e01b8152600481018490526001600160a01b0390911690634cc8221590602401600060405180830381600087803b1580156105d057600080fd5b505af11580156105e4573d6000803e3d6000fd5b5050505080806105f39061125d565b915050610564565b50600054604051636c01832560e11b8152306004820152602481018390526001600160a01b039091169063d803064a906044015b600060405180830381600087803b15801561064957600080fd5b505af115801561065d573d6000803e3d6000fd5b505050505b50565b6001546001600160a01b0316331461068f5760405162461bcd60e51b81526004016103bf90611284565b6001600160a01b03166000908152600260205260409020805460ff19166001179055565b604080516001808252818301909252606091829190816020015b60608152602001906001900390816106cd575050604080516001808252818301909252919350602080830190803683370190505090506040518060400160405280600581526020016476616c756560d81b8152508260008151811061073457610734611247565b6020026020010181905250600d8160008151811061075457610754611247565b6020026020010190601f81111561076d5761076d610e97565b9081601f81111561078057610780610e97565b9052509091565b3360009081526002602052604090205460ff166107b65760405162461bcd60e51b81526004016103bf90611172565b600680546001810182556000919091527ff652222313e28459528d920b65115c16c04f3efc82aaedc97be59f3f377c0d3f0180546001600160a01b0319166001600160a01b0392909216919091179055565b3360009081526002602052604090205460ff166108375760405162461bcd60e51b81526004016103bf90611172565b600354604051630801f16960e11b8152600481018490526001600160a01b0390911690631003e2d290602401600060405180830381600087803b15801561087d57600080fd5b505af1158015610891573d6000803e3d6000fd5b50506005546000858152600460205260409081902090516001600160a01b039092169350636526db7a92506108c5916111d1565b60405190819003812060e083901b6001600160e01b0319168252600482015260248101859052604401600060405180830381600087803b15801561090857600080fd5b505af115801561091c573d6000803e3d6000fd5b5050506000838152600460205260409020905061093982826112f3565b506005548151602083012060405163771602f760e01b81526001600160a01b039092169163771602f79161097a918690600401918252602082015260400190565b600060405180830381600087803b15801561099457600080fd5b505af11580156109a8573d6000803e3d6000fd5b5050505060005b600654811015610a4b57600681815481106109cc576109cc611247565b6000918252602090912001546040516242d70760e31b81526001600160a01b0390911690630216b83890610a0690869086906004016113b3565b600060405180830381600087803b158015610a2057600080fd5b505af1158015610a34573d6000803e3d6000fd5b505050508080610a439061125d565b9150506109af565b506000546040516302bc413960e61b81526001600160a01b039091169063af104e4090610a80903090869086906004016113cc565b600060405180830381600087803b158015610a9a57600080fd5b505af1158015610aae573d6000803e3d6000fd5b505050505050565b6001546001600160a01b03163314610ae05760405162461bcd60e51b81526004016103bf90611284565b600080546001600160a01b0319166001600160a01b038316908117909155600754604051630f30347760e41b8152306004820152602481019190915263f30347709060440161062f565b60055481516020830120604051631e5b17a560e21b815260048101919091526060916001600160a01b03169063796c5e9490602401600060405180830381865afa158015610b7c573d6000803e3d6000fd5b505050506040513d6000823e601f3d908101601f19168201604052610ba491908101906110cc565b92915050565b6000818152600460205260409020805460609190610bc790611197565b80601f0160208091040260200160405190810160405280929190818152602001828054610bf390611197565b8015610c405780601f10610c1557610100808354040283529160200191610c40565b820191906000526020600020905b815481529060010190602001808311610c2357829003601f168201915b50505050509050919050565b600354604051636667bd4760e11b8152600481018390526000916001600160a01b03169063cccf7a8e90602401602060405180830381865afa158015610c96573d6000803e3d6000fd5b505050506040513d601f19601f82011682018060405250810190610ba491906113fc565b6001546001600160a01b03163314610ce45760405162461bcd60e51b81526004016103bf90611284565b33600090815260026020526040808220805460ff19908116909155600180546001600160a01b0319166001600160a01b03959095169485178155938352912080549091169091179055565b6060610ba482604051602001610d4791815260200190565b604051602081830303815290604052610b2a565b508054610d6790611197565b6000825580601f10610d77575050565b601f01602090049060005260206000209081019061066291905b80821115610da55760008155600101610d91565b5090565b600060208284031215610dbb57600080fd5b5035919050565b60008060408385031215610dd557600080fd5b50508035926020909101359150565b6020808252825182820181905260009190848201906040850190845b81811015610e1c57835183529284019291840191600101610e00565b50909695505050505050565b600060208284031215610e3a57600080fd5b81356001600160a01b03811681146102e357600080fd5b6000815180845260005b81811015610e7757602081850181015186830182015201610e5b565b506000602082860101526020601f19601f83011685010191505092915050565b634e487b7160e01b600052602160045260246000fd5b6000604082016040835280855180835260608501915060608160051b8601019250602080880160005b83811015610f0457605f19888703018552610ef2868351610e51565b95509382019390820190600101610ed6565b50508584038187015286518085528782019482019350915060005b82811015610f58578451828110610f4657634e487b7160e01b600052602160045260246000fd5b84529381019392810192600101610f1f565b5091979650505050505050565b634e487b7160e01b600052604160045260246000fd5b604051601f8201601f1916810167ffffffffffffffff81118282101715610fa457610fa4610f65565b604052919050565b600082601f830112610fbd57600080fd5b813567ffffffffffffffff811115610fd757610fd7610f65565b610fea601f8201601f1916602001610f7b565b818152846020838601011115610fff57600080fd5b816020850160208301376000918101602001919091529392505050565b6000806040838503121561102f57600080fd5b82359150602083013567ffffffffffffffff81111561104d57600080fd5b61105985828601610fac565b9150509250929050565b60006020828403121561107557600080fd5b813567ffffffffffffffff81111561108c57600080fd5b61109884828501610fac565b949350505050565b6020815260006102e36020830184610e51565b6000602082840312156110c557600080fd5b5051919050565b600060208083850312156110df57600080fd5b825167ffffffffffffffff808211156110f757600080fd5b818501915085601f83011261110b57600080fd5b81518181111561111d5761111d610f65565b8060051b915061112e848301610f7b565b818152918301840191848101908884111561114857600080fd5b938501935b838510156111665784518252938501939085019061114d565b98975050505050505050565b6020808252600b908201526a27a7262cafaba924aa22a960a91b604082015260600190565b600181811c908216806111ab57607f821691505b6020821081036111cb57634e487b7160e01b600052602260045260246000fd5b50919050565b60008083546111df81611197565b600182811680156111f7576001811461120c5761123b565b60ff198416875282151583028701945061123b565b8760005260208060002060005b858110156112325781548a820152908401908201611219565b50505082870194505b50929695505050505050565b634e487b7160e01b600052603260045260246000fd5b60006001820161127d57634e487b7160e01b600052601160045260246000fd5b5060010190565b6020808252600a908201526927a7262cafa7aba722a960b11b604082015260600190565b601f8211156112ee57600081815260208120601f850160051c810160208610156112cf5750805b601f850160051c820191505b81811015610aae578281556001016112db565b505050565b815167ffffffffffffffff81111561130d5761130d610f65565b6113218161131b8454611197565b846112a8565b602080601f831160018114611356576000841561133e5750858301515b600019600386901b1c1916600185901b178555610aae565b600085815260208120601f198616915b8281101561138557888601518255948401946001909101908401611366565b50858210156113a35787850151600019600388901b60f8161c191681555b5050505050600190811b01905550565b8281526040602082015260006110986040830184610e51565b60018060a01b03841681528260208201526060604082015260006113f36060830184610e51565b95945050505050565b60006020828403121561140e57600080fd5b815180151581146102e357600080fdfea2646970667358221220d537bc30eef379df23a98927f863a5e5fe556991fa48992ecd828a3460d2cd0d64736f6c63430008100033608060405234801561001057600080fd5b506103bf806100206000396000f3fe608060405234801561001057600080fd5b50600436106100575760003560e01c80631003e2d21461005c578063410d59cc146100715780634cc822151461008f578063949d225d146100a2578063cccf7a8e146100b3575b600080fd5b61006f61006a3660046102d9565b6100d6565b005b610079610128565b60405161008691906102f2565b60405180910390f35b61006f61009d3660046102d9565b610180565b600054604051908152602001610086565b6100c66100c13660046102d9565b610276565b6040519015158152602001610086565b6100df81610276565b156100e75750565b600080548282526001602081905260408320829055810182559080527f290decd9548b62a8d60345a988386fc84ba6bc95484008f6362f93160ef3e5630155565b6060600080548060200260200160405190810160405280929190818152602001828054801561017657602002820191906000526020600020905b815481526020019060010190808311610162575b5050505050905090565b61018981610276565b6101905750565b600080546101a090600190610336565b815481106101b0576101b061035d565b906000526020600020015460006001600084815260200190815260200160002054815481106101e1576101e161035d565b600091825260208083209091019290925582815260019182905260408120548154909291908190849081106102185761021861035d565b90600052602060002001548152602001908152602001600020819055506001600082815260200190815260200160002060009055600080548061025d5761025d610373565b6001900381819060005260206000200160009055905550565b60008054810361028857506000919050565b60008281526001602052604081205490036102c45781600080815481106102b1576102b161035d565b9060005260206000200154149050919050565b50600090815260016020526040902054151590565b6000602082840312156102eb57600080fd5b5035919050565b6020808252825182820181905260009190848201906040850190845b8181101561032a5783518352928401929184019160010161030e565b50909695505050505050565b8181038181111561035757634e487b7160e01b600052601160045260246000fd5b92915050565b634e487b7160e01b600052603260045260246000fd5b634e487b7160e01b600052603160045260246000fdfea26469706673582212205a41463ee94c5d76095b43f62ab3d50ef2ea707f4aa6908568ec10c04bf1ddde64736f6c63430008100033608060405234801561001057600080fd5b5061046b806100206000396000f3fe608060405234801561001057600080fd5b50600436106100575760003560e01c80636526db7a1461005c578063771602f714610071578063796c5e941461008457806385edea13146100ad578063a0265ff8146100db575b600080fd5b61006f61006a366004610369565b6100fe565b005b61006f61007f366004610369565b61022d565b61009761009236600461038b565b610276565b6040516100a491906103a4565b60405180910390f35b6100cd6100bb36600461038b565b60009081526020819052604090205490565b6040519081526020016100a4565b6100ee6100e9366004610369565b6102d6565b60405190151581526020016100a4565b61010882826102d6565b610110575050565b6000828152602081905260409020805461012c906001906103e8565b8154811061013c5761013c610409565b6000918252602080832090910154848352828252604080842060018452818520868652909352909220548154811061017657610176610409565b6000918252602080832090910192909255838152600182526040808220848352808452818320548684528385529183208584529381905283549193909291849081106101c4576101c4610409565b600091825260208083209091015483528281019390935260409182018120939093558483526001825280832084845282528083208390558483529082905290208054806102135761021361041f565b600190038181906000526020600020016000905590555050565b61023782826102d6565b15610240575050565b60009182526020828152604080842080546001808552838720868852855292862081905585845291820181558452922090910155565b600081815260208181526040918290208054835181840281018401909452808452606093928301828280156102ca57602002820191906000526020600020905b8154815260200190600101908083116102b6575b50505050509050919050565b60008281526020819052604081205481036102f357506000610363565b60008381526001602090815260408083208584529091528120549003610345576000838152602081905260408120805484929061033257610332610409565b9060005260206000200154149050610363565b50600082815260016020908152604080832084845290915290205415155b92915050565b6000806040838503121561037c57600080fd5b50508035926020909101359150565b60006020828403121561039d57600080fd5b5035919050565b6020808252825182820181905260009190848201906040850190845b818110156103dc578351835292840192918401916001016103c0565b50909695505050505050565b8181038181111561036357634e487b7160e01b600052601160045260246000fd5b634e487b7160e01b600052603260045260246000fd5b634e487b7160e01b600052603160045260246000fdfea2646970667358221220b0c5179b46cd38b54fb5e2f8e092dc34365bdcb0f601f6262cffd8fb46e9757764736f6c63430008100033608060405234801561001057600080fd5b50604051610bee380380610bee83398101604081905261002f9161010b565b600280546001600160a01b0319163317905581816001600160a01b0381161561005857806100ba565b816001600160a01b031663ba62fbe46040518163ffffffff1660e01b8152600401602060405180830381865afa158015610096573d6000803e3d6000fd5b505050506040513d601f19601f820116820180604052508101906100ba9190610145565b600080546001600160a01b039283166001600160a01b031991821617909155600180549490921693169290921790915550610169915050565b6001600160a01b038116811461010857600080fd5b50565b6000806040838503121561011e57600080fd5b8251610129816100f3565b602084015190925061013a816100f3565b809150509250929050565b60006020828403121561015757600080fd5b8151610162816100f3565b9392505050565b610a76806101786000396000f3fe608060405234801561001057600080fd5b506004361061004c5760003560e01c806309c5eabe146100515780638b246a5b1461007a5780638da5cb5b1461008e578063f6cd7a01146100a9575b600080fd5b61006461005f36600461072e565b6100bc565b60405161007191906107c3565b60405180910390f35b61006461008836600461072e565b50606090565b6002546040516001600160a01b039091168152602001610071565b6100646100b7366004610836565b6105d7565b6060600080600080858060200190518101906100d89190610887565b600154939750919550935091506001600160a01b0316331461014d5760405162461bcd60e51b815260206004820152602360248201527f73797374656d2063616e206f6e6c792062652063616c6c65642076696120576f6044820152621c9b1960ea1b60648201526084015b60405180910390fd5b6000836001811115610161576101616108da565b148061017e5750600183600181111561017c5761017c6108da565b145b6101b95760405162461bcd60e51b815260206004820152600c60248201526b696e76616c6964207479706560a01b6044820152606401610144565b806000036101f65760405162461bcd60e51b815260206004820152600a6024820152691a5b9d985b1a59081a5960b21b6044820152606401610144565b6001600160a01b03821661023e5760405162461bcd60e51b815260206004820152600f60248201526e696e76616c6964206164647265737360881b6044820152606401610144565b600080846001811115610253576102536108da565b146102935760005461028e906001600160a01b03167f017c816a964927a00e050edd780dcf113ca2756dfa9e9fda94a05c140d9317b0610610565b6102a0565b6000546001600160a01b03165b905060006001600160a01b038416604051636667bd4760e11b8152600481018290529091506001600160a01b0383169063cccf7a8e90602401602060405180830381865afa1580156102f6573d6000803e3d6000fd5b505050506040513d601f19601f8201168201806040525081019061031a91906108f0565b156103675760405162461bcd60e51b815260206004820152601960248201527f656e7469747920616c72656164792072656769737465726564000000000000006044820152606401610144565b604051637defd0f560e11b8152600481018490526000906001600160a01b0384169063fbdfa1ea90602401600060405180830381865afa1580156103af573d6000803e3d6000fd5b505050506040513d6000823e601f3d908101601f191682016040526103d79190810190610919565b90508051600014806104875750805160011480156104875750866001600160a01b031661041b82600081518110610410576104106109bf565b602002602001015190565b6001600160a01b0316638da5cb5b6040518163ffffffff1660e01b8152600401602060405180830381865afa158015610458573d6000803e3d6000fd5b505050506040513d601f19601f8201168201806040525081019061047c91906109d5565b6001600160a01b0316145b6104e65760405162461bcd60e51b815260206004820152602a60248201527f696420616c7265616479207265676973746572656420616e642063616c6c6572604482015269103737ba1037bbb732b960b11b6064820152608401610144565b805160010361056a57826001600160a01b0316634cc8221582600081518110610511576105116109bf565b60200260200101516040518263ffffffff1660e01b815260040161053791815260200190565b600060405180830381600087803b15801561055157600080fd5b505af1158015610565573d6000803e3d6000fd5b505050505b604051631ab06ee560e01b815260048101839052602481018590526001600160a01b03841690631ab06ee590604401600060405180830381600087803b1580156105b357600080fd5b505af11580156105c7573d6000803e3d6000fd5b5050505050505050505050919050565b6060610607858585856040516020016105f394939291906109f2565b6040516020818303038152906040526100bc565b95945050505050565b604051637defd0f560e11b81526004810182905260009081906001600160a01b0385169063fbdfa1ea90602401600060405180830381865afa15801561065a573d6000803e3d6000fd5b505050506040513d6000823e601f3d908101601f191682016040526106829190810190610919565b905080516000036106c95760405162461bcd60e51b81526020600482015260116024820152701a59081b9bdd081c9959da5cdd195c9959607a1b6044820152606401610144565b6106df81600081518110610410576104106109bf565b949350505050565b634e487b7160e01b600052604160045260246000fd5b604051601f8201601f1916810167ffffffffffffffff81118282101715610726576107266106e7565b604052919050565b6000602080838503121561074157600080fd5b823567ffffffffffffffff8082111561075957600080fd5b818501915085601f83011261076d57600080fd5b81358181111561077f5761077f6106e7565b610791601f8201601f191685016106fd565b915080825286848285010111156107a757600080fd5b8084840185840137600090820190930192909252509392505050565b600060208083528351808285015260005b818110156107f0578581018301518582016040015282016107d4565b506000604082860101526040601f19601f8301168501019250505092915050565b6001600160a01b038116811461082657600080fd5b50565b6002811061082657600080fd5b6000806000806080858703121561084c57600080fd5b843561085781610811565b9350602085013561086781610829565b9250604085013561087781610811565b9396929550929360600135925050565b6000806000806080858703121561089d57600080fd5b84516108a881610811565b60208601519094506108b981610829565b60408601519093506108ca81610811565b6060959095015193969295505050565b634e487b7160e01b600052602160045260246000fd5b60006020828403121561090257600080fd5b8151801515811461091257600080fd5b9392505050565b6000602080838503121561092c57600080fd5b825167ffffffffffffffff8082111561094457600080fd5b818501915085601f83011261095857600080fd5b81518181111561096a5761096a6106e7565b8060051b915061097b8483016106fd565b818152918301840191848101908884111561099557600080fd5b938501935b838510156109b35784518252938501939085019061099a565b98975050505050505050565b634e487b7160e01b600052603260045260246000fd5b6000602082840312156109e757600080fd5b815161091281610811565b6001600160a01b038581168252608082019060028610610a2257634e487b7160e01b600052602160045260246000fd5b8560208401528085166040840152508260608301529594505050505056fea2646970667358221220a45588c3de06d5b28669c3a9f0c81b10ec2a03827e515a9a7fbacfb812a9d60d64736f6c63430008100033",
    "linkReferences": {}
  },
  "methodIdentifiers": {
    "components()": "ba62fbe4",
    "getComponent(uint256)": "4f27da18",
    "getComponentIdFromAddress(address)": "9f54f545",
    "getNumEntities()": "d7ecf62b",
    "getSystemAddress(uint256)": "fb3ec48b",
    "getUniqueEntityId()": "614bfa6e",
    "hasEntity(uint256)": "e3d12875",
    "init()": "e1c7392a",
    "query((uint8,uint256,bytes)[])": "687485a6",
    "register()": "1aa3a008",
    "registerComponent(address,uint256)": "f3034770",
    "registerComponentValueRemoved(address,uint256)": "d803064a",
    "registerComponentValueSet(address,uint256,bytes)": "af104e40",
    "registerSystem(address,uint256)": "1ee444b7",
    "systems()": "0d59332e"
  },
  "id": 30
}