{
  "abi": [
    {
      "inputs": [
        {
          "internalType": "address",
          "name": "world",
          "type": "address"
        }
      ],
      "stateMutability": "nonpayable",
      "type": "constructor"
    },
    {
      "inputs": [
        {
          "internalType": "address",
          "name": "writer",
          "type": "address"
        }
      ],
      "name": "authorizeWriter",
      "outputs": [],
      "stateMutability": "nonpayable",
      "type": "function"
    },
    {
      "inputs": [],
      "name": "getEntities",
      "outputs": [
        {
          "internalType": "uint256[]",
          "name": "",
          "type": "uint256[]"
        }
      ],
      "stateMutability": "view",
      "type": "function"
    },
    {
      "inputs": [
        {
          "internalType": "bytes",
          "name": "value",
          "type": "bytes"
        }
      ],
      "name": "getEntitiesWithValue",
      "outputs": [
        {
          "internalType": "uint256[]",
          "name": "",
          "type": "uint256[]"
        }
      ],
      "stateMutability": "view",
      "type": "function"
    },
    {
      "inputs": [
        {
          "components": [
            {
              "internalType": "int256",
              "name": "x",
              "type": "int256"
            },
            {
              "internalType": "int256",
              "name": "y",
              "type": "int256"
            },
            {
              "internalType": "int256",
              "name": "width",
              "type": "int256"
            },
            {
              "internalType": "int256",
              "name": "height",
              "type": "int256"
            }
          ],
          "internalType": "struct Collider",
          "name": "value",
          "type": "tuple"
        }
      ],
      "name": "getEntitiesWithValue",
      "outputs": [
        {
          "internalType": "uint256[]",
          "name": "",
          "type": "uint256[]"
        }
      ],
      "stateMutability": "view",
      "type": "function"
    },
    {
      "inputs": [
        {
          "internalType": "uint256",
          "name": "entity",
          "type": "uint256"
        }
      ],
      "name": "getRawValue",
      "outputs": [
        {
          "internalType": "bytes",
          "name": "",
          "type": "bytes"
        }
      ],
      "stateMutability": "view",
      "type": "function"
    },
    {
      "inputs": [],
      "name": "getSchema",
      "outputs": [
        {
          "internalType": "string[]",
          "name": "keys",
          "type": "string[]"
        },
        {
          "internalType": "enum LibTypes.SchemaValue[]",
          "name": "values",
          "type": "uint8[]"
        }
      ],
      "stateMutability": "pure",
      "type": "function"
    },
    {
      "inputs": [
        {
          "internalType": "uint256",
          "name": "entity",
          "type": "uint256"
        }
      ],
      "name": "getValue",
      "outputs": [
        {
          "components": [
            {
              "internalType": "int256",
              "name": "x",
              "type": "int256"
            },
            {
              "internalType": "int256",
              "name": "y",
              "type": "int256"
            },
            {
              "internalType": "int256",
              "name": "width",
              "type": "int256"
            },
            {
              "internalType": "int256",
              "name": "height",
              "type": "int256"
            }
          ],
          "internalType": "struct Collider",
          "name": "",
          "type": "tuple"
        }
      ],
      "stateMutability": "view",
      "type": "function"
    },
    {
      "inputs": [
        {
          "internalType": "uint256",
          "name": "entity",
          "type": "uint256"
        }
      ],
      "name": "has",
      "outputs": [
        {
          "internalType": "bool",
          "name": "",
          "type": "bool"
        }
      ],
      "stateMutability": "view",
      "type": "function"
    },
    {
      "inputs": [],
      "name": "id",
      "outputs": [
        {
          "internalType": "uint256",
          "name": "",
          "type": "uint256"
        }
      ],
      "stateMutability": "view",
      "type": "function"
    },
    {
      "inputs": [],
      "name": "owner",
      "outputs": [
        {
          "internalType": "address",
          "name": "",
          "type": "address"
        }
      ],
      "stateMutability": "view",
      "type": "function"
    },
    {
      "inputs": [
        {
          "internalType": "address",
          "name": "indexer",
          "type": "address"
        }
      ],
      "name": "registerIndexer",
      "outputs": [],
      "stateMutability": "nonpayable",
      "type": "function"
    },
    {
      "inputs": [
        {
          "internalType": "address",
          "name": "_world",
          "type": "address"
        }
      ],
      "name": "registerWorld",
      "outputs": [],
      "stateMutability": "nonpayable",
      "type": "function"
    },
    {
      "inputs": [
        {
          "internalType": "uint256",
          "name": "entity",
          "type": "uint256"
        }
      ],
      "name": "remove",
      "outputs": [],
      "stateMutability": "nonpayable",
      "type": "function"
    },
    {
      "inputs": [
        {
          "internalType": "uint256",
          "name": "entity",
          "type": "uint256"
        },
        {
          "components": [
            {
              "internalType": "int256",
              "name": "x",
              "type": "int256"
            },
            {
              "internalType": "int256",
              "name": "y",
              "type": "int256"
            },
            {
              "internalType": "int256",
              "name": "width",
              "type": "int256"
            },
            {
              "internalType": "int256",
              "name": "height",
              "type": "int256"
            }
          ],
          "internalType": "struct Collider",
          "name": "value",
          "type": "tuple"
        }
      ],
      "name": "set",
      "outputs": [],
      "stateMutability": "nonpayable",
      "type": "function"
    },
    {
      "inputs": [
        {
          "internalType": "uint256",
          "name": "entity",
          "type": "uint256"
        },
        {
          "internalType": "bytes",
          "name": "value",
          "type": "bytes"
        }
      ],
      "name": "set",
      "outputs": [],
      "stateMutability": "nonpayable",
      "type": "function"
    },
    {
      "inputs": [
        {
          "internalType": "address",
          "name": "newOwner",
          "type": "address"
        }
      ],
      "name": "transferOwnership",
      "outputs": [],
      "stateMutability": "nonpayable",
      "type": "function"
    },
    {
      "inputs": [],
      "name": "world",
      "outputs": [
        {
          "internalType": "address",
          "name": "",
          "type": "address"
        }
      ],
      "stateMutability": "view",
      "type": "function"
    },
    {
      "inputs": [
        {
          "internalType": "address",
          "name": "",
          "type": "address"
        }
      ],
      "name": "writeAccess",
      "outputs": [
        {
          "internalType": "bool",
          "name": "",
          "type": "bool"
        }
      ],
      "stateMutability": "view",
      "type": "function"
    }
  ],
  "bytecode": {
    "object": "0x60806040523480156200001157600080fd5b506040516200207d3803806200207d83398101604081905262000034916200021a565b807f6a7cc323a056ef9c1378d529556aaabce7ccad47d7a9f011ed1a41766f374ac760001c6040516200006790620001fe565b604051809103906000f08015801562000084573d6000803e3d6000fd5b50600380546001600160a01b0319166001600160a01b0392909216919091179055604051620000b3906200020c565b604051809103906000f080158015620000d0573d6000803e3d6000fd5b50600580546001600160a01b03199081166001600160a01b03938416179091556001805433921682178155600091825260026020526040909120805460ff1916909117905560078290558216156200012d576200012d8262000136565b5050506200024c565b6001546001600160a01b03163314620001825760405162461bcd60e51b815260206004820152600a60248201526927a7262cafa7aba722a960b11b604482015260640160405180910390fd5b600080546001600160a01b0319166001600160a01b038316908117909155600754604051630f30347760e41b8152306004820152602481019190915263f303477090604401600060405180830381600087803b158015620001e257600080fd5b505af1158015620001f7573d6000803e3d6000fd5b5050505050565b6103df806200181383390190565b61048b8062001bf283390190565b6000602082840312156200022d57600080fd5b81516001600160a01b03811681146200024557600080fd5b9392505050565b6115b7806200025c6000396000f3fe608060405234801561001057600080fd5b50600436106101165760003560e01c80638b282947116100a2578063b361be4611610071578063b361be461461028f578063b8bc073d146102a2578063cc6ae2bd146102c2578063cccf7a8e146102d5578063f2fde38b146102e857600080fd5b80638b282947146102415780638da5cb5b146102545780639d2c76b414610265578063af640d0f1461027857600080fd5b80634cc82215116100e95780634cc82215146101bf5780634fef6a38146101d25780636b122fe0146101e557806375c0669c146101fb578063861eb9051461020e57600080fd5b80630ff4c9161461011b57806330b67baa1461016a57806331b933b9146101955780633a727344146101aa575b600080fd5b61012e610129366004610e66565b6102fb565b60405161016191908151815260208083015190820152604080830151908201526060918201519181019190915260800190565b60405180910390f35b60005461017d906001600160a01b031681565b6040516001600160a01b039091168152602001610161565b61019d610348565b6040516101619190610e7f565b6101bd6101b8366004610edb565b6103bf565b005b6101bd6101cd366004610e66565b61040b565b6101bd6101e0366004610f08565b6106e0565b6101ed61072e565b604051610161929190610f94565b6101bd610209366004610f08565b61082e565b61023161021c366004610f08565b60026020526000908152604090205460ff1681565b6040519015158152602001610161565b6101bd61024f366004611103565b6108af565b6001546001600160a01b031661017d565b6101bd610273366004610f08565b610b5d565b61028160075481565b604051908152602001610161565b61019d61029d36600461114a565b610bd1565b6102b56102b0366004610e66565b610c4b565b6040516101619190611187565b61019d6102d036600461119a565b610ced565b6102316102e3366004610e66565b610d35565b6101bd6102f6366004610f08565b610da3565b6103266040518060800160405280600081526020016000815260200160008152602001600081525090565b61032f82610c4b565b80602001905181019061034291906111b6565b92915050565b60035460408051631043567360e21b815290516060926001600160a01b03169163410d59cc9160048083019260009291908290030181865afa158015610392573d6000803e3d6000fd5b505050506040513d6000823e601f3d908101601f191682016040526103ba919081019061121c565b905090565b6040805182356020808301919091528301358183015290820135606080830191909152820135608082015261040790839060a0016040516020818303038152906040526108af565b5050565b3360009081526002602052604090205460ff166104435760405162461bcd60e51b815260040161043a906112c2565b60405180910390fd5b6005546000828152600460205260409081902090516001600160a01b03909216916385edea13916104739161131b565b60405190819003812060e083901b6001600160e01b03191682526004820152602401602060405180830381865afa1580156104b2573d6000803e3d6000fd5b505050506040513d601f19601f820116820180604052508101906104d69190611391565b156106dd576005546000828152600460205260409081902090516001600160a01b0390921691636526db7a9161050b9161131b565b60405190819003812060e083901b6001600160e01b0319168252600482015260248101849052604401600060405180830381600087803b15801561054e57600080fd5b505af1158015610562573d6000803e3d6000fd5b5050600354604051634cc8221560e01b8152600481018590526001600160a01b039091169250634cc822159150602401600060405180830381600087803b1580156105ac57600080fd5b505af11580156105c0573d6000803e3d6000fd5b50505060008281526004602052604081206105dc925090610e18565b60005b60065481101561067657600681815481106105fc576105fc6113aa565b600091825260209091200154604051634cc8221560e01b8152600481018490526001600160a01b0390911690634cc8221590602401600060405180830381600087803b15801561064b57600080fd5b505af115801561065f573d6000803e3d6000fd5b50505050808061066e906113c0565b9150506105df565b50600054604051636c01832560e11b8152306004820152602481018390526001600160a01b039091169063d803064a906044015b600060405180830381600087803b1580156106c457600080fd5b505af11580156106d8573d6000803e3d6000fd5b505050505b50565b6001546001600160a01b0316331461070a5760405162461bcd60e51b815260040161043a906113e7565b6001600160a01b03166000908152600260205260409020805460ff19166001179055565b606080604051806040016040528060018152602001600f60fb1b8152508260008151811061075e5761075e6113aa565b602002602001018190525060068160008151811061077e5761077e6113aa565b6020026020010190601f81111561079757610797610f7e565b9081601f8111156107aa576107aa610f7e565b81525050604051806040016040528060018152602001607960f81b815250826001815181106107db576107db6113aa565b60200260200101819052506006816001815181106107fb576107fb6113aa565b6020026020010190601f81111561081457610814610f7e565b9081601f81111561082757610827610f7e565b9052509091565b3360009081526002602052604090205460ff1661085d5760405162461bcd60e51b815260040161043a906112c2565b600680546001810182556000919091527ff652222313e28459528d920b65115c16c04f3efc82aaedc97be59f3f377c0d3f0180546001600160a01b0319166001600160a01b0392909216919091179055565b3360009081526002602052604090205460ff166108de5760405162461bcd60e51b815260040161043a906112c2565b600354604051630801f16960e11b8152600481018490526001600160a01b0390911690631003e2d290602401600060405180830381600087803b15801561092457600080fd5b505af1158015610938573d6000803e3d6000fd5b50506005546000858152600460205260409081902090516001600160a01b039092169350636526db7a925061096c9161131b565b60405190819003812060e083901b6001600160e01b0319168252600482015260248101859052604401600060405180830381600087803b1580156109af57600080fd5b505af11580156109c3573d6000803e3d6000fd5b505050600083815260046020526040902090506109e08282611456565b506005548151602083012060405163771602f760e01b81526001600160a01b039092169163771602f791610a21918690600401918252602082015260400190565b600060405180830381600087803b158015610a3b57600080fd5b505af1158015610a4f573d6000803e3d6000fd5b5050505060005b600654811015610af25760068181548110610a7357610a736113aa565b6000918252602090912001546040516242d70760e31b81526001600160a01b0390911690630216b83890610aad9086908690600401611516565b600060405180830381600087803b158015610ac757600080fd5b505af1158015610adb573d6000803e3d6000fd5b505050508080610aea906113c0565b915050610a56565b506000546040516302bc413960e61b81526001600160a01b039091169063af104e4090610b279030908690869060040161152f565b600060405180830381600087803b158015610b4157600080fd5b505af1158015610b55573d6000803e3d6000fd5b505050505050565b6001546001600160a01b03163314610b875760405162461bcd60e51b815260040161043a906113e7565b600080546001600160a01b0319166001600160a01b038316908117909155600754604051630f30347760e41b8152306004820152602481019190915263f3034770906044016106aa565b60055481516020830120604051631e5b17a560e21b815260048101919091526060916001600160a01b03169063796c5e9490602401600060405180830381865afa158015610c23573d6000803e3d6000fd5b505050506040513d6000823e601f3d908101601f19168201604052610342919081019061121c565b6000818152600460205260409020805460609190610c68906112e7565b80601f0160208091040260200160405190810160405280929190818152602001828054610c94906112e7565b8015610ce15780601f10610cb657610100808354040283529160200191610ce1565b820191906000526020600020905b815481529060010190602001808311610cc457829003601f168201915b50505050509050919050565b6040805182356020808301919091528301358183015290820135606082810191909152828101356080830152906103429060a001604051602081830303815290604052610bd1565b600354604051636667bd4760e11b8152600481018390526000916001600160a01b03169063cccf7a8e90602401602060405180830381865afa158015610d7f573d6000803e3d6000fd5b505050506040513d601f19601f82011682018060405250810190610342919061155f565b6001546001600160a01b03163314610dcd5760405162461bcd60e51b815260040161043a906113e7565b33600090815260026020526040808220805460ff19908116909155600180546001600160a01b0319166001600160a01b03959095169485178155938352912080549091169091179055565b508054610e24906112e7565b6000825580601f10610e34575050565b601f0160209004906000526020600020908101906106dd91905b80821115610e625760008155600101610e4e565b5090565b600060208284031215610e7857600080fd5b5035919050565b6020808252825182820181905260009190848201906040850190845b81811015610eb757835183529284019291840191600101610e9b565b50909695505050505050565b600060808284031215610ed557600080fd5b50919050565b60008060a08385031215610eee57600080fd5b82359150610eff8460208501610ec3565b90509250929050565b600060208284031215610f1a57600080fd5b81356001600160a01b0381168114610f3157600080fd5b9392505050565b6000815180845260005b81811015610f5e57602081850181015186830182015201610f42565b506000602082860101526020601f19601f83011685010191505092915050565b634e487b7160e01b600052602160045260246000fd5b6000604082016040835280855180835260608501915060608160051b8601019250602080880160005b83811015610feb57605f19888703018552610fd9868351610f38565b95509382019390820190600101610fbd565b50508584038187015286518085528782019482019350915060005b8281101561103f57845182811061102d57634e487b7160e01b600052602160045260246000fd5b84529381019392810192600101611006565b5091979650505050505050565b634e487b7160e01b600052604160045260246000fd5b604051601f8201601f1916810167ffffffffffffffff8111828210171561108b5761108b61104c565b604052919050565b600082601f8301126110a457600080fd5b813567ffffffffffffffff8111156110be576110be61104c565b6110d1601f8201601f1916602001611062565b8181528460208386010111156110e657600080fd5b816020850160208301376000918101602001919091529392505050565b6000806040838503121561111657600080fd5b82359150602083013567ffffffffffffffff81111561113457600080fd5b61114085828601611093565b9150509250929050565b60006020828403121561115c57600080fd5b813567ffffffffffffffff81111561117357600080fd5b61117f84828501611093565b949350505050565b602081526000610f316020830184610f38565b6000608082840312156111ac57600080fd5b610f318383610ec3565b6000608082840312156111c857600080fd5b6040516080810181811067ffffffffffffffff821117156111eb576111eb61104c565b8060405250825181526020830151602082015260408301516040820152606083015160608201528091505092915050565b6000602080838503121561122f57600080fd5b825167ffffffffffffffff8082111561124757600080fd5b818501915085601f83011261125b57600080fd5b81518181111561126d5761126d61104c565b8060051b915061127e848301611062565b818152918301840191848101908884111561129857600080fd5b938501935b838510156112b65784518252938501939085019061129d565b98975050505050505050565b6020808252600b908201526a27a7262cafaba924aa22a960a91b604082015260600190565b600181811c908216806112fb57607f821691505b602082108103610ed557634e487b7160e01b600052602260045260246000fd5b6000808354611329816112e7565b60018281168015611341576001811461135657611385565b60ff1984168752821515830287019450611385565b8760005260208060002060005b8581101561137c5781548a820152908401908201611363565b50505082870194505b50929695505050505050565b6000602082840312156113a357600080fd5b5051919050565b634e487b7160e01b600052603260045260246000fd5b6000600182016113e057634e487b7160e01b600052601160045260246000fd5b5060010190565b6020808252600a908201526927a7262cafa7aba722a960b11b604082015260600190565b601f82111561145157600081815260208120601f850160051c810160208610156114325750805b601f850160051c820191505b81811015610b555782815560010161143e565b505050565b815167ffffffffffffffff8111156114705761147061104c565b6114848161147e84546112e7565b8461140b565b602080601f8311600181146114b957600084156114a15750858301515b600019600386901b1c1916600185901b178555610b55565b600085815260208120601f198616915b828110156114e8578886015182559484019460019091019084016114c9565b50858210156115065787850151600019600388901b60f8161c191681555b5050505050600190811b01905550565b82815260406020820152600061117f6040830184610f38565b60018060a01b03841681528260208201526060604082015260006115566060830184610f38565b95945050505050565b60006020828403121561157157600080fd5b81518015158114610f3157600080fdfea2646970667358221220c43f80ee2fe68d0df10142ff648a217b1fc4d54b5e1be9ff5273f6f4d502495d64736f6c63430008100033608060405234801561001057600080fd5b506103bf806100206000396000f3fe608060405234801561001057600080fd5b50600436106100575760003560e01c80631003e2d21461005c578063410d59cc146100715780634cc822151461008f578063949d225d146100a2578063cccf7a8e146100b3575b600080fd5b61006f61006a3660046102d9565b6100d6565b005b610079610128565b60405161008691906102f2565b60405180910390f35b61006f61009d3660046102d9565b610180565b600054604051908152602001610086565b6100c66100c13660046102d9565b610276565b6040519015158152602001610086565b6100df81610276565b156100e75750565b600080548282526001602081905260408320829055810182559080527f290decd9548b62a8d60345a988386fc84ba6bc95484008f6362f93160ef3e5630155565b6060600080548060200260200160405190810160405280929190818152602001828054801561017657602002820191906000526020600020905b815481526020019060010190808311610162575b5050505050905090565b61018981610276565b6101905750565b600080546101a090600190610336565b815481106101b0576101b061035d565b906000526020600020015460006001600084815260200190815260200160002054815481106101e1576101e161035d565b600091825260208083209091019290925582815260019182905260408120548154909291908190849081106102185761021861035d565b90600052602060002001548152602001908152602001600020819055506001600082815260200190815260200160002060009055600080548061025d5761025d610373565b6001900381819060005260206000200160009055905550565b60008054810361028857506000919050565b60008281526001602052604081205490036102c45781600080815481106102b1576102b161035d565b9060005260206000200154149050919050565b50600090815260016020526040902054151590565b6000602082840312156102eb57600080fd5b5035919050565b6020808252825182820181905260009190848201906040850190845b8181101561032a5783518352928401929184019160010161030e565b50909695505050505050565b8181038181111561035757634e487b7160e01b600052601160045260246000fd5b92915050565b634e487b7160e01b600052603260045260246000fd5b634e487b7160e01b600052603160045260246000fdfea26469706673582212205a41463ee94c5d76095b43f62ab3d50ef2ea707f4aa6908568ec10c04bf1ddde64736f6c63430008100033608060405234801561001057600080fd5b5061046b806100206000396000f3fe608060405234801561001057600080fd5b50600436106100575760003560e01c80636526db7a1461005c578063771602f714610071578063796c5e941461008457806385edea13146100ad578063a0265ff8146100db575b600080fd5b61006f61006a366004610369565b6100fe565b005b61006f61007f366004610369565b61022d565b61009761009236600461038b565b610276565b6040516100a491906103a4565b60405180910390f35b6100cd6100bb36600461038b565b60009081526020819052604090205490565b6040519081526020016100a4565b6100ee6100e9366004610369565b6102d6565b60405190151581526020016100a4565b61010882826102d6565b610110575050565b6000828152602081905260409020805461012c906001906103e8565b8154811061013c5761013c610409565b6000918252602080832090910154848352828252604080842060018452818520868652909352909220548154811061017657610176610409565b6000918252602080832090910192909255838152600182526040808220848352808452818320548684528385529183208584529381905283549193909291849081106101c4576101c4610409565b600091825260208083209091015483528281019390935260409182018120939093558483526001825280832084845282528083208390558483529082905290208054806102135761021361041f565b600190038181906000526020600020016000905590555050565b61023782826102d6565b15610240575050565b60009182526020828152604080842080546001808552838720868852855292862081905585845291820181558452922090910155565b600081815260208181526040918290208054835181840281018401909452808452606093928301828280156102ca57602002820191906000526020600020905b8154815260200190600101908083116102b6575b50505050509050919050565b60008281526020819052604081205481036102f357506000610363565b60008381526001602090815260408083208584529091528120549003610345576000838152602081905260408120805484929061033257610332610409565b9060005260206000200154149050610363565b50600082815260016020908152604080832084845290915290205415155b92915050565b6000806040838503121561037c57600080fd5b50508035926020909101359150565b60006020828403121561039d57600080fd5b5035919050565b6020808252825182820181905260009190848201906040850190845b818110156103dc578351835292840192918401916001016103c0565b50909695505050505050565b8181038181111561036357634e487b7160e01b600052601160045260246000fd5b634e487b7160e01b600052603260045260246000fd5b634e487b7160e01b600052603160045260246000fdfea2646970667358221220b0c5179b46cd38b54fb5e2f8e092dc34365bdcb0f601f6262cffd8fb46e9757764736f6c63430008100033",
    "linkReferences": {}
  },
  "methodIdentifiers": {
    "authorizeWriter(address)": "4fef6a38",
    "getEntities()": "31b933b9",
    "getEntitiesWithValue((int256,int256,int256,int256))": "cc6ae2bd",
    "getEntitiesWithValue(bytes)": "b361be46",
    "getRawValue(uint256)": "b8bc073d",
    "getSchema()": "6b122fe0",
    "getValue(uint256)": "0ff4c916",
    "has(uint256)": "cccf7a8e",
    "id()": "af640d0f",
    "owner()": "8da5cb5b",
    "registerIndexer(address)": "75c0669c",
    "registerWorld(address)": "9d2c76b4",
    "remove(uint256)": "4cc82215",
    "set(uint256,(int256,int256,int256,int256))": "3a727344",
    "set(uint256,bytes)": "8b282947",
    "transferOwnership(address)": "f2fde38b",
    "world()": "30b67baa",
    "writeAccess(address)": "861eb905"
  },
  "id": 32
}